:100000000C9464000C948C000C948C000C948C0068
:100010000C948C000C948C000C948C000C945B1150
:100020000C948C000C9488070C948C000C94B90BE5
:100030000C94FF070C948C000C948C000C948C0096
:100040000C94A40C0C948C000C948C000C948C00DC
:100050000C948C000C948C000C948C000C948C00F0
:100060000C945B060C948C00000000080002010058
:100070000003040700000000000000000102040863
:100080001020408001020408102001020408102002
:10009000040404040404040402020202020203032E
:1000A00003030303000000002300260029000000D2
:1000B0000000250028002B0000000000240027007D
:1000C0002A0002000C011F0611241FBECFEFD4E04E
:1000D000DEBFCDBF11E0A0E0B1E0E0E1F9E202C097
:1000E00005900D92AA32B107D9F722E0AAE2B1E059
:1000F00001C01D92A93AB207E1F710E0C4E6D0E0D2
:1001000004C02197FE010E946614C236D107C9F7C8
:100110000E9405010C9486140C9400008AE291E080
:100120000E94180548EE53E060E070E08AE291E03A
:100130000E94EE042CE046E061EE77E08AE291E076
:100140000E942A054BE366E08AE291E00E942605C0
:1001500040E067E08AE291E00E94350525E045E055
:1001600065E08AE291E00E94390561E08AE291E06F
:100170000C944D058AE291E00E948005882309F4E1
:1001800040C024E630E040E050E068EB71E08AE2F5
:1001900091E00E94660544E853E060E070E08AE286
:1001A00091E00E94EE0424E630E040E050E068EB8D
:1001B00071E08AE291E00E94660544E853E060E065
:1001C00070E08AE291E00E94EE0424E630E040E034
:1001D00050E068EB71E08AE291E00E94660544E835
:1001E00053E060E070E08AE291E00E94EE0428EEC5
:1001F00033E040E050E060E773E08AE291E00E9483
:1002000066058AE291E00C946A050E94650D0E94E1
:100210008E000E94BA00FDCF8AE291E00C94F204B5
:10022000FC01DB0114968C911497838B15968C91AD
:100230001597848B16968C911697858B17968C91B3
:100240001797868B8C91878B11968C911197808F45
:1002500012968C911297818F13968C91828F0895AC
:10026000FC01DB018C91838B11968C911197848B0F
:1002700012968C911297858B13968C911397868B7F
:1002800014968C91878B0895CF93DF93EC016111C5
:1002900019C04A3011F461E010C04B3039F460E00D
:1002A0008A810E94640E61E08B8124C0483011F481
:1002B00061E0F6CF493011F560E08A810E94640E5A
:1002C00060E0F2CF6130D1F44A3079F04B3011F474
:1002D00060E003C0483031F461E08D810E94640E1B
:1002E00061E007C0493051F460E08D810E94640EE6
:1002F00060E08E81DF91CF910C94640EDF91CF91FD
:1003000008958F929F92AF92BF92CF92DF92EF9219
:10031000FF920F931F93CF93DF93EC01042F611192
:1003200091C0FC01EF5AFF4F408304B405FC08C0A4
:10033000299B02C05D9927C1299902C05D9B23C1F9
:1003400001110DC084B5806284BD299B03C084B5B2
:10035000806102C084B58F7E84BD18BC14C194B581
:100360009F7E94BD1885299B65C00A3108F457C04B
:10037000602F70E080E090E00E94CF124B015C01A2
:1003800023EB3FEE4AE05BEB0E948413A50194014E
:100390000E9484136B017C0125E033EA42EC5FE3A9
:1003A000C501B4010E9484139B01AC01C701B601D1
:1003B0000E94B91121E230EB42E95FE30E94B811DB
:1003C0006B017C019B01AC01C501B4010E947F134C
:1003D000181644F4602F70E080E090E00E94CD1287
:1003E0006B017C01612F70E080E090E00E94CF12F1
:1003F0009B01AC01C701B6010E94841320E030E0EC
:1004000048EC52E40E9425129B01AC0160E070E0D0
:100410008FE793E40E94B8110E94971209C0019FD0
:10042000C00111246CE97FEF0E94111461507F4FCD
:100430008A819BC0019FC001112464E670E00E9484
:100440001114F6CF613009F09EC0FC01EE5AFF4F47
:10045000408304B407FC08C02A9B02C05E9993C085
:100460002A9902C05E9B8FC001110DC084B58068BF
:1004700084BD2A9B03C084B5806402C084B58F7B91
:1004800084BD17BC80C094B59F7B94BD19852A9B01
:1004900064C00A3108F457C0602F70E080E090E03B
:1004A0000E94CF124B015C0123EB3FEE4AE05BEB75
:1004B0000E948413A50194010E9484136B017C01A6
:1004C00025E033EA42EC5FE3C501B4010E948413E6
:1004D0009B01AC01C701B6010E94B91121E230EBCA
:1004E00042E95FE30E94B8116B017C019B01AC0102
:1004F000C501B4010E947F13181644F4602F70E008
:1005000080E090E00E94CD126B017C01612F70E0D1
:1005100080E090E00E94CF129B01AC01C701B601C0
:100520000E94841320E030E048EC52E40E9425123F
:100530009B01AC0160E070E08FE793E40E94B8118A
:100540000E94971211C0019FC00111246CE97FEF36
:100550000E94111461507F4F07C0019FC0011124F8
:1005600064E670E00E9411148D81DF91CF911F919C
:100570000F91FF90EF90DF90CF90BF90AF909F9042
:100580008F900C94A00DDF91CF911F910F91FF9050
:10059000EF90DF90CF90BF90AF909F908F90089595
:1005A0008F929F92AF92BF92CF92DF92EF92FF9283
:1005B0000F931F93CF93DF93EC016111ACC04A30CE
:1005C000D9F4FC01EF5AFF4F8081882369F084B58C
:1005D0008F7E84BD80819885899FC001112464E647
:1005E00070E00E94111492C084B5806284BD84B50D
:1005F0008F7E84BD18BC8DC04B3009F07DC0FC01DE
:10060000EF5AFF4F8081882309F46CC084B58F7E38
:1006100084BD108108851A3108F457C0612F70E03D
:1006200080E090E00E94CF124B015C0123EB3FEE93
:100630004AE05BEB0E948413A50194010E9484139D
:100640006B017C0125E033EA42EC5FE3C501B401B4
:100650000E9484139B01AC01C701B6010E94B9112D
:1006600021E230EB42E95FE30E94B8116B017C01AB
:100670009B01AC01C501B4010E947F13181644F41C
:10068000612F70E080E090E00E94CD126B017C0150
:10069000602F70E080E090E00E94CF129B01AC01DF
:1006A000C701B6010E94841320E030E048EC52E418
:1006B0000E9425129B01AC0160E070E08FE793E49B
:1006C0000E94B8110E94971209C0109FC001112406
:1006D0006CE97FEF0E94111461507F4F8A810E9464
:1006E000A00D07C084B5806284BD84B5806184BDDF
:1006F00018BC61E08B81BCC0483019F46FEF70E02A
:10070000EDCF493009F0C2C060E070E08A810E94FC
:10071000A00D60E0EFCF613009F0B8C04A30D9F4E5
:10072000FC01EE5AFF4F8081882369F084B58F7BEE
:1007300084BD80819985899FC001112464E670E0A1
:100740000E94111490C084B5806884BD84B58F7BED
:1007500084BD17BC8BC04B3009F078C0FC01EE5A49
:10076000FF4F8081882309F469C084B58F7B84BDE5
:10077000108109851A3108F457C0612F70E080E0BC
:1007800090E00E94CF124B015C0123EB3FEE4AE068
:100790005BEB0E948413A50194010E9484136B01FA
:1007A0007C0125E033EA42EC5FE3C501B4010E941D
:1007B00084139B01AC01C701B6010E94B91121E26B
:1007C00030EB42E95FE30E94B8116B017C019B01B1
:1007D000AC01C501B4010E947F13181644F4612FC7
:1007E00070E080E090E00E94CD126B017C01602FF0
:1007F00070E080E090E00E94CF129B01AC01C70145
:10080000B6010E94841320E030E048EC52E40E94DC
:1008100025129B01AC0160E070E08FE793E40E9439
:10082000B8110E94971216C0109FC00111246CE9E4
:100830007FEF0E94111461507F4F0CC084B5806817
:1008400084BD84B5806484BD17BC07C0483039F4CA
:100850006FEF70E08D810E94A00D61E008C049300B
:10086000A9F460E070E08D810E94A00D60E08E81AF
:10087000DF91CF911F910F91FF90EF90DF90CF907C
:10088000BF90AF909F908F900C94640EDF91CF91AA
:100890001F910F91FF90EF90DF90CF90BF90AF909E
:1008A0009F908F900895611104C061E0FC018381E5
:1008B00003C061E0FC0186810C94280ECF93DF9386
:1008C000EC01611116C087960E94960CCE018A96A3
:1008D0000E94960C61E08A810E94280E61E08B8163
:1008E0000E94280E60E08A810E94640E60E08B8185
:1008F00015C08D960E94960CCE01C0960E94960C53
:1009000061E08D810E94280E61E08E810E94280E98
:1009100060E08D810E94640E60E08E81DF91CF9156
:100920000C94640EFC0161110AC08085489FC001CF
:10093000112464E670E00E94111484810BC06130C0
:1009400059F48185489FC001112464E670E00E943B
:10095000111487810C94A00D0895EF92FF920F93CC
:100960001F93CF93DF93EC0185E091E09983888317
:100970008E01055E1F4F7E0183E3E80EF11CC80166
:100980000E947A0C0D5F1F4F0E151F05C1F76DE118
:10099000C8010E94AE0B32E03A8324E02B8383E04F
:1009A0008C8397E09D8388E08E8345E04F8344E607
:1009B000488749878A8749E04B874AE04C874BE064
:1009C0004D874CE04E873F87288B998B8A8BDF9130
:1009D000CF911F910F91FF90EF900895CB01BA0135
:1009E0000C941D0DCF93DF93EC010E94AD0481E1C7
:1009F00091E099838883CE018D5A9F4F0E94430ACC
:100A000085E08A8329E02B8336E03D839AE09E834C
:100A100044E6488749878A878B873C872D879E874E
:100A20008BE08F8761E083E0DF91CF910C94280EFB
:100A3000CF93DF93EC01CD5ADF4FCE010E94440AE1
:100A400060E1CE01DF91CF910C94CF0A8D5A9F4F78
:100A50000C947C0A605D77406932710510F060ED9E
:100A600077E08D5A9F4F0C94A10A8D5A9F4F0C949A
:100A7000E10A0F93FC01EB5AFF4F608331964083EC
:100A8000319620833397022F242F462F60818D5A71
:100A90009F4F0E94060B0F9108950F93CF93DF9302
:100AA000FC01EC5AFF4F6083EC01C95ADF4FDC01B7
:100AB000AA5ABF4F319608812C9140818D5A9F4F81
:100AC0000E94060BDF91CF910F9108958D5A9F4F91
:100AD0000C94840B1092B00087E08093B10083B730
:100AE000817F866083BF83B7816083BF889583B72A
:100AF0008E7F83BF62E370E080E090E00C941D0D78
:100B00008D5A9F4F0C94360B8091B10190E020914B
:100B1000B201821B910908959091B2018091B101B7
:100B2000981750F4E92FF0E0ED54FE4F208130E0AB
:100B30009F5F9093B20102C02FEF3FEFC90108956C
:100B4000E091B2018091B101E81730F4F0E0ED548A
:100B5000FE4F808190E008958FEF9FEF08950895F4
:100B6000CF92DF92EF92FF920F931F93CF93DF9379
:100B70007C01262F972F8A0180918E01882391F086
:100B8000C62FD72F6E01C40ED51ECC15DD0571F012
:100B90006991D701ED91FC910190F081E02DC701A1
:100BA0000995F3CF642F822F0E942306C801DF919D
:100BB000CF911F910F91FF90EF90DF90CF9008950C
:100BC000CF93DF931F92CDB7DEB7698320918E015B
:100BD0002223D1F020918F01203240F021E030E03B
:100BE000FC013383228380E090E015C08091900166
:100BF000E82FF0E0EF56FE4F998190838F5F80934E
:100C0000900180938F0105C061E0CE0101960E94A2
:100C1000230681E090E00F90DF91CF910895FC01D1
:100C20001382128288EE93E0A0E0B0E08483958383
:100C3000A683B7838DE191E091838083089582E854
:100C400091E00C940F064091F501262F30E0240F1F
:100C5000311D21323105DCF4209140022430C9F4E9
:100C6000FC0180E090E0861758F43091F501219165
:100C7000DC01A950BE4FA30FB11D2C930196F3CFF9
:100C80008091F501680F6093F50180E0089581E09F
:100C9000089582E0089585ED8093BC008091BC00AA
:100CA00084FDFCCF10924002089585EC8093BC0037
:100CB0001092400208951F920F920FB60F921124C6
:100CC0002F933F934F935F936F937F938F939F9354
:100CD000AF93BF93EF93FF938091B900887F8036E5
:100CE00009F49EC078F5883209F45DC090F4803133
:100CF00009F456C038F4882309F4F5C0883009F4A3
:100D00004FC0F5C0883109F44EC0803209F45FC08D
:100D1000EEC0803409F46AC058F4803309F457C037
:100D2000883309F0E4C08093D3010E945506DFC0E8
:100D3000803509F44FC0883509F45DC0883409F066
:100D4000D6C0D3C0883909F4C4C0A8F4883709F4E0
:100D500067C038F4883609F463C0803709F460C08E
:100D6000C6C0883809F4B5C0803909F45FC080383E
:100D700009F0BDC05BC0803B09F483C038F4803A01
:100D800009F466C0883A09F47CC0B1C0803C09F41B
:100D9000A4C0883C09F4A1C0883B09F487C0A7C05F
:100DA00080913F0210C0909118028091170298170D
:100DB00070F5E091180281E08E0F80931802F0E048
:100DC000E75EFD4F80818093BB0085EC83C08093FC
:100DD000D3018BC0E091180281E08E0F809318023E
:100DE0008091BB00F0E0E75EFD4F80839091180298
:100DF000809117026BC0E091180281E08E0F809302
:100E000018028091BB00F0E0E75EFD4F8083809187
:100E10003E0281116AC081E080933D0284EA5EC097
:100E200083E0809340021092D401CFCF8091D4010F
:100E3000803208F04EC0E091D40181E08E0F8093A3
:100E4000D4018091BB00F0E0EB52FE4F8083BDCF18
:100E50000E9455068091D401803230F4E091D40193
:100E6000F0E0EB52FE4F10826091D40170E0E0910F
:100E70003902F0913A0285ED91E009951092D40182
:100E800036C084E0809340021092F6011092F50182
:100E9000E0913B02F0913C0209958091F5018111AE
:100EA00005C081E08093F5011092F701E091F60111
:100EB00081E08E0F8093F601F0E0E950FE4F8081D3
:100EC0008093BB009091F6018091F501981708F48A
:100ED0007CCF85E88093BC000AC085EC8093BC0081
:100EE0001092400204C01092D3010E944B06FF9161
:100EF000EF91BF91AF919F918F917F916F915F9192
:100F00004F913F912F910F900FBE0F901F9018950A
:100F10001F920F920FB60F9211248F939F93AF934E
:100F2000BF938091410290914202A0914302B091FF
:100F300044020196A11DB11D80934102909342028B
:100F4000A0934302B0934402BF91AF919F918F91C0
:100F50000F900FBE0F901F901895CF93DF93C82F5F
:100F6000D8E02D9A8CE291E00E94590DC7FF02C093
:100F70002B9A01C02B988AE590E00E94590DCC0F66
:100F80002D9880915A02882329F010925A0280E706
:100F900097E102C08CE291E00E94590DD15009F70F
:100FA00085B1886285B98C2FDF91CF910895EF923A
:100FB000FF921F93CF93DF931F92CDB7DEB721E04F
:100FC00020934D0220935A02182F7C018E2D811BF5
:100FD000861740F4F70181917F0169830E94AD0774
:100FE0006981F4CF80E197E20E94590D10924D0281
:100FF0000F90DF91CF911F91FF90EF9008951F9276
:101000000F920FB60F9211240F931F932F933F93BC
:101010004F935F936F937F938F939F93AF93BF9300
:10102000EF93FF93CF93DF9300D01F92CDB7DEB73E
:1010300080914A02882309F45FC020916202809166
:10104000620290E09595879595958795182F137076
:1010500026FF29C000914C02013029F510924C0264
:1010600080914B028823F9F088E00E94451100939B
:10107000490210924B0210924A0220915B02809129
:101080005C0290E03CE3239F800D911D1124092E0A
:10109000000CAA0BBB0B8093450290934602A093D1
:1010A0004702B0934802111136C010924C02809151
:1010B0004B02882381F188E00E94451181E08093F2
:1010C000490210924B0210924A0220915B028091D9
:1010D0005C0290E03CE3239F800D911D1124092EBA
:1010E000000CAA0BBB0B8093450290934602A09381
:1010F0004702B09348020FC080914902882359F0FB
:1011000085EA89831A821B8263E0CE0101960E94E0
:10111000D7071092490220915B0280915C0290E017
:101120003CE3239F800D911D1124092E000CAA0B76
:10113000BB0B40914502509146026091470270916D
:101140004802481759076A077B0719F081E0809326
:101150004C020F900F900F90DF91CF91FF91EF9184
:10116000BF91AF919F918F917F916F915F914F91BF
:101170003F912F911F910F910F900FBE0F901F90D5
:101180001895CF93DF9381E080935A02D8E0C0E0B6
:101190002D9A8CE291E00E94590D2D9880915A026F
:1011A000882329F010925A0280E797E102C086E96D
:1011B00090E00E94590DCC0F8CE00E94940E892B78
:1011C00009F0C16084EB90E00E94590D2D9A80EFE8
:1011D00090E00E94590DD150D9F688E592E00E9426
:1011E000590D2D9A8C2FDF91CF910895CF92DF92D8
:1011F000EF92FF920F931F9380914D02811165C072
:101200000E94EE0C6B017C01209141023091420260
:101210004091430250914402A5E1B0E00E946C1459
:1012200000915602109157022091580230915902B4
:10123000DC01CB01801B910BA20BB30BC80ED91E96
:10124000EA1EFB1E29EEC21623E0D206E104F104D9
:10125000E0F181E080935A0281EB0E94AD070E9489
:10126000C108982F92959F708F702AE0929F800DF1
:10127000112480935B020E94C108982F92959F7061
:101280008F702AE0929F800D112480935C020E944F
:10129000EE0C6B017C0120914102309142024091A1
:1012A000430250914402A5E1B0E00E946C14DC01BD
:1012B000CB018C0D9D1DAE1DBF1D809356029093DA
:1012C0005702A0935802B09359021F910F91FF90BB
:1012D000EF90DF90CF900895CF92DF92EF92FF9240
:1012E0000F931F9380914D02811150C00E94EE0C0C
:1012F0006B017C01209141023091420240914302F6
:1013000050914402A5E1B0E00E946C1400914E029D
:1013100010914F022091500230915102DC01CB011B
:10132000801B910BA20BB30BC80ED91EEA1EFB1E2D
:1013300089ECC816D104E104F10440F181E0809306
:101340005A0283EB0E94AD070E94C108809362029B
:101350000E94EE0C6B017C0120914102309142020F
:101360004091430250914402A5E1B0E00E946C1408
:10137000DC01CB018C0D9D1DAE1DBF1D80934E0267
:1013800090934F02A0935002B09351021F910F917E
:10139000FF90EF90DF90CF900895CF92DF92EF9281
:1013A000FF920F931F9380914D02811165C00E949F
:1013B000EE0C6B017C012091410230914202409180
:1013C000430250914402A5E1B0E00E946C140091E8
:1013D0005202109153022091540230915502DC01C7
:1013E000CB01801B910BA20BB30BC80ED91EEA1EBA
:1013F000FB1E29EEC21623E0D206E104F104E0F15F
:1014000081E080935A0284EB0E94AD070E94C108DC
:10141000982F92959F708F702AE0929F800D1124D3
:10142000809363020E94C108982F92959F708F70DD
:101430002AE0929F800D1124809364020E94EE0C9A
:101440006B017C01209141023091420240914302A4
:1014500050914402A5E1B0E00E946C14DC01CB0184
:101460008C0D9D1DAE1DBF1D8093520290935302A3
:10147000A0935402B09355021F910F91FF90EF90EB
:10148000DF90CF900895089561E08DE00E94280ECE
:1014900060E08CE00E94280E61E08BE00E94280E44
:1014A00061E088E00E94280E61E08DE00E94640EF9
:1014B00061E08BE00E94640E1092800082E08093D5
:1014C000810010928B008FEF80938A00EFE6F0E0AE
:1014D0008081846080831092B00087E08093B100A7
:1014E00060ED77E080E090E00E941D0D81E0809348
:1014F000700080934C020895CF93DF9300D01F9229
:10150000CDB7DEB7862F91EA99832AE0622F0E9439
:10151000F11330E1839F900D11249A83842F0E9450
:10152000F11320E1829F900D11249B8363E0CE0193
:1015300001960E94D7070F900F900F90DF91CF91E7
:101540000895CF93DF9300D000D0CDB7DEB7862FBC
:1015500092EA99833AE0632F0E94F11350E1859F4C
:10156000900D11249A83842F0E94F11340E1849FEF
:10157000900D11249B83822F0E94F11350E1859FCF
:10158000900D11249C8364E0CE0101960E94D70740
:101590000F900F900F900F90DF91CF910895CF9300
:1015A000DF9300D0CDB7DEB783EA89836A8362E038
:1015B000CE0101960E94D7070F900F90DF91CF9137
:1015C0000895CF93DF9300D01F92CDB7DEB7862F5B
:1015D00094EA99832AE0622F0E94F11330E1839FFD
:1015E000900D11249A83842F0E94F11320E1829F91
:1015F000900D11249B8363E0CE0101960E94D707D2
:101600000F900F900F90DF91CF9108950F93CF938C
:10161000DF9300D01F92CDB7DEB785EA898380E1E2
:10162000689F400D11244A8380E1089F200D1124FA
:101630002B8363E0CE0101960E94D70762E370E03E
:1016400080E090E00E941D0D0F900F900F90DF91B1
:10165000CF910F9108950E946C098091620290E0F1
:10166000959587959595879583700895FF920F932B
:101670001F93CF93DF938C010E942B0B811102C02B
:1016800080E03CC00E94F608C0915B020E94CD0938
:10169000F09063020E94F608D0915C020E94CD098E
:1016A000409164022C2F30E02F1931095CE3529FE6
:1016B000C001539F900D1124CD2FD0E0C41BD10940
:1016C000C80FD91FC8010E942B0B813011F420973D
:1016D000B9F6C8010E942B0B823039F4CE0165E0C7
:1016E00070E00E941114892B59F680914C028823D6
:1016F00039F281E080934A0280934B02DF91CF91CF
:101700001F910F91FF900895CF92DF92EF92FF9279
:10171000CF93DF9380914C028130C9F469017A0143
:10172000EB010E946C0920E030E0A901BE0188E0D5
:101730000E94BD0EC701B6010E941D0D88E0DF9119
:10174000CF91FF90EF90DF90CF900C944511DF91F7
:10175000CF91FF90EF90DF90CF900895FC016083D0
:1017600040EE5EE265E672E4428F538F648F758FC0
:1017700008951F920F920FB60F9211242F933F934B
:101780004F935F936F937F938F939F93AF93BF9389
:10179000EF93FF938091660287FF05C0109285004A
:1017A000109284001BC020916602022E000C330BA5
:1017B0008091650290E02817390784F480916602D1
:1017C000082E000C990BFC01EE0FFF1F8E0F9F1FC0
:1017D000FC01E959FD4F808186FD15C080916602AC
:1017E0008F5F8093660220916602022E000C330BFD
:1017F0008091650290E028173907C4F48091660251
:101800008C3064F113C080916602082E000C990B95
:10181000FC01EE0FFF1F8E0F9F1FFC01E959FD4FCA
:10182000808160E08F730E94640ED8CF8091840025
:101830009091850004968033954718F480E395E7EE
:1018400005C0809184009091850004969093890052
:10185000809388008FEF809366023BC020918400C4
:101860003091850080916602082E000C990BFC01D6
:10187000EE0FFF1F8E0F9F1FFC01E959FD4F818165
:101880009281820F931F90938900809388008091AA
:101890006602082E000C990BFC01EE0FFF1F8E0F45
:1018A0009F1FFC01E959FD4F808186FF12C0809186
:1018B0006602082E000C990BFC01EE0FFF1F8E0F25
:1018C0009F1FFC01E959FD4F808161E08F730E94E9
:1018D000640EFF91EF91BF91AF919F918F917F9196
:1018E0006F915F914F913F912F910F900FBE0F908D
:1018F0001F901895FC01909165029C30A0F481E046
:10190000890F809365029083892F90E0FC01EE0F90
:10191000FF1F8E0F9F1FFC01E959FD4F8AEC98E0D5
:101920009283818308958FEF80830895DC01EC9189
:10193000F0E0CF01880F991FE80FF91FE959FD4F1B
:1019400080818F7B808308951F920F920FB60F9234
:1019500011242F933F938F939F93AF93BF938091C5
:101960008C0290918D02A0918E02B0918F023091E5
:101970008B022DE2230F2D3720F40196A11DB11DFE
:1019800005C020EB230F0296A11DB11D20938B02F1
:1019900080938C0290938D02A0938E02B0938F025D
:1019A0008091900290919102A0919202B091930245
:1019B0000196A11DB11D8093900290939102A09376
:1019C0009202B0939302BF91AF919F918F913F91FB
:1019D0002F910F900FBE0F901F9018952FB7F8946E
:1019E00060918C0270918D0280918E0290918F0295
:1019F0002FBF08959FB7F8944091900250919102A3
:101A0000609192027091930286B5A89B06C08F3FA9
:101A100021F04F5F5F4F6F4F7F4F9FBF762F652F36
:101A2000542F44279A01AB01280F311D411D511D30
:101A3000A5E0B0E00E946C1408958F929F92AF923F
:101A4000BF92CF92DF92EF92FF926B017C010E94D6
:101A5000FA0C4B015C01C114D104E104F10401F161
:101A60000E94B7110E94FA0CDC01CB018819990978
:101A7000AA09BB09883E9340A105B10560F321E0A6
:101A8000C21AD108E108F10888EE880E83E0981E9A
:101A9000A11CB11CC114D104E104F10419F7DBCF7E
:101AA000FF90EF90DF90CF90BF90AF909F908F907E
:101AB00008958230910540F09C01220F331F059755
:101AC000820F931F0197F1F70895789484B582608F
:101AD00084BD84B5816084BD85B5826085BD85B5D2
:101AE000816085BDEEE6F0E0808181608083E1E881
:101AF000F0E01082808182608083808181608083B9
:101B0000E0E8F0E0808181608083E1EBF0E08081BB
:101B100084608083E0EBF0E0808181608083EAE78D
:101B2000F0E0808184608083808182608083808116
:101B30008E7F80838081806880831092C1000895A9
:101B40001F93CF93DF93182FEB0161E00E94280EC3
:101B5000209711F460E004C0CF3FD10539F461E073
:101B6000812FDF91CF911F910C94640EE12FF0E053
:101B7000E859FF4FE491E330F9F048F4E130B9F06F
:101B8000E230A1F584B5806284BDC8BD34C0E730C1
:101B9000E9F0E83019F1E43049F580918000806285
:101BA00080938000D0938B00C0938A0024C084B5BA
:101BB000806884BDC7BD1FC080918000806880930D
:101BC0008000D0938900C093880015C08091B00038
:101BD00080688093B000C093B3000DC08091B000C6
:101BE00080628093B000C093B40005C0C038D105B6
:101BF0000CF0B5CFAFCFDF91CF911F910895833017
:101C000081F028F4813099F08230A1F00895873076
:101C1000A9F08830B9F08430D1F4809180008F7DB4
:101C200003C0809180008F7780938000089584B5F1
:101C30008F7702C084B58F7D84BD08958091B000F8
:101C40008F7703C08091B0008F7D8093B00008959E
:101C5000CF93DF9390E0FC01E458FF4F2491FC0107
:101C6000E057FF4F8491882361F190E0880F991F1E
:101C7000FC01E854FF4FC591D491FC01E255FF4FA0
:101C8000A591B491611109C09FB7F89488812095FE
:101C900082238883EC912E230BC0623061F49FB7BE
:101CA000F8943881822F809583238883EC912E2BA2
:101CB0002C939FBF06C08FB7F894E8812E2B288302
:101CC0008FBFDF91CF9108951F93CF93DF93282F7C
:101CD00030E0F901E859FF4F8491F901E458FF4FD2
:101CE000D491F901E057FF4FC491CC23C9F0162FCE
:101CF00081110E94FF0DEC2FF0E0EE0FFF1FE25567
:101D0000FF4FA591B4918FB7F894111105C09C9124
:101D1000ED2FE095E92302C0EC91ED2BEC938FBF02
:101D2000DF91CF911F910895CF93DF93282F30E05B
:101D3000F901E859FF4F8491F901E458FF4FD4911C
:101D4000F901E057FF4FC491CC2391F081110E941B
:101D5000FF0DEC2FF0E0EE0FFF1FEC55FF4FA591AC
:101D6000B491EC91ED2381E090E021F480E002C099
:101D700080E090E0DF91CF9108953F924F925F9283
:101D80006F927F928F929F92AF92BF92CF92DF928B
:101D9000EF92FF920F931F93CF93DF9300D000D069
:101DA000CDB7DEB790910001981721F09F3F09F061
:101DB00036C204C0E2ECF0E0349081C080930001B0
:101DC000E2ECF0E0E491EF3F09F429C2E13031F1B7
:101DD000E23009F44BC0E11171C014BC15BC94B5DC
:101DE000926094BD95B5916095BDA82FB0E0FD01BE
:101DF000E057FF4FE491F0E0EE0FFF1FE255FF4F79
:101E0000059114911093A4020093A302FD01E458DC
:101E1000FF4FE491E093A202312C53C01092800056
:101E20001092810090918100986090938100909130
:101E30008100916090938100A82FB0E0FD01E057F0
:101E4000FF4FE491F0E0EE0FFF1FE255FF4F0591C9
:101E5000149110939D0200939C02FD01E458FF4FE2
:101E6000E491E0939B02332433942BC01092B00092
:101E70001092B1009091B00092609093B000909158
:101E8000B10091609093B100A82FB0E0FD01E05740
:101E9000FF4FE491F0E0EE0FFF1FE255FF4F059179
:101EA00014911093960200939502FD01E458FF4FA0
:101EB000E491E093940202E0302E03C03E2E37FC02
:101EC000AEC129833A834B835C838B0161E00E941E
:101ED000280E4801A12CB12C832D8D7F09F0B7C0AD
:101EE00060E87DE88BE590E0A50194010E9447142D
:101EF00029013A0169017A0121E0C21AD108E108F9
:101F0000F1088FEFC816D104E104F10409F008F4D8
:101F10004CC060EB71E78BE090E0A50194010E945A
:101F2000471469017A0191E0C91AD108E108F10862
:101F3000A2E03A1220C0BFEFCB16D104E104F104B5
:101F400009F008F46AC16CE67CED82E090E0A5013E
:101F500094010E94471469017A01E1E0CE1AD10888
:101F6000E108F108FFEFCF16D104E104F10409F014
:101F7000C0F583E065C02FEFC216D104E104F1047F
:101F8000B1F0A8F066E37EE681E090E0A50194015F
:101F90000E94471469017A0181E0C81AD108E1085A
:101FA000F108332009F4E5C02FC181E001C082E0CF
:101FB000332091F045C0D301C2012AE0B595A79521
:101FC000979587952A95D1F76C017D01E1E0CE1AAE
:101FD000D108E108F10885E095B5987F892B85BD8A
:101FE00072C066E37EE681E090E0A50194010E9464
:101FF000471469017A01B1E0CB1AD108E108F10870
:10200000EFEFCE16D104E104F10409F008F4AFC0FB
:102010006BE177EB80E090E0A50194010E9447140A
:1020200069017A0191E0C91AD108E108F108AFEF1E
:10203000CA16D104E104F10411F008F0BAC085E039
:102040009091B100987F892B8093B1003CC060E8EB
:102050007DE88BE590E0A50194010E944714690199
:102060007A01F1E0CF1AD108E108F108C114D104D6
:1020700021E0E206F10488F066E37EE681E090E08C
:10208000A50194010E94471469017A0181E0C81AF0
:10209000D108E108F10893E001C091E0A1E03A1213
:1020A00012C080918100887F892B80938100898173
:1020B0009A81AB81BC81892B8A2B8B2B61F42FEF0A
:1020C0003FEFA90132C089819A81AB81BC81892B04
:1020D0008A2B8B2B81F0D801AA0FBB1F29813A8153
:1020E0004B815C810E946C1428EE33E040E050E0AC
:1020F0000E94251403C02FEF3FEFA90191E039168C
:10210000A1F0A2E03A1619F1311089C0C7BC2093A2
:10211000A5023093A6024093A7025093A802809193
:102120006E00826080936E007AC0D0928900C09267
:10213000880020939E0230939F024093A002509308
:10214000A10280916F00826080936F0068C0C0928E
:10215000B3002093970230939802409399025093D2
:102160009A028091700082608093700058C084E071
:1021700067CF8FEFC816D104E104F104C1F0B8F0C5
:10218000BB2777FCBA95A72D962D852D6C017D0177
:10219000F1E0CF1AD108E108F1082FEFC216D104FF
:1021A000E104F10411F008F006CF84E015CF83E0DC
:1021B00013CFBB2777FCBA95A72D962D852D6C01E3
:1021C0007D01E1E0CE1AD108E108F108FFEFCF165A
:1021D000D104E104F104B1F0A8F0D301C2016AE036
:1021E000B595A795979587956A95D1F76C017D016F
:1021F000E1E0CE1AD108E108F108332009F4EBCE72
:1022000087E01ECF86E0D4CE2FEFC216D104E104C2
:10221000F10409F070F684E0CBCE82E011CF0F908C
:102220000F900F900F90DF91CF911F910F91FF9022
:10223000EF90DF90CF90BF90AF909F908F907F9066
:102240006F905F904F903F900895813039F018F073
:10225000823051F0089510926E00089580916F00C1
:102260008D7F80936F000895809170008D7F8093A3
:10227000700081E08093B0008091B100887F84601D
:102280008093B1001092B3000895CF93C82F80912E
:1022900000018C1307C0E2ECF0E0E4918FEF809333
:1022A000000101C0EFEF8E2F0E94251160E08C2FFE
:1022B000CF910C94640E1F920F920FB60F921124BF
:1022C0002F933F934F935F936F937F938F939F933E
:1022D000AF93BF93EF93FF938091970290919802F1
:1022E000A0919902B0919A02892B8A2B8B2B51F1E4
:1022F00080919402E0919502F09196029081892755
:1023000080838091970290919802A0919902B09158
:102310009A02181619061A061B06C4F48091970231
:1023200090919802A0919902B0919A020197A10907
:10233000B1098093970290939802A0939902B09369
:102340009A0204C0809100010E944511FF91EF9113
:10235000BF91AF919F918F917F916F915F914F91BD
:102360003F912F910F900FBE0F901F9018950895D9
:102370005058BB27AA270E94D0110C9445130E94E5
:10238000371338F00E943E1320F039F49F3F19F4C0
:1023900026F40C9434130EF4E095E7FB0C942E1302
:1023A000E92F0E94561358F3BA1762077307840780
:1023B000950720F079F4A6F50C9478130EF4E095C7
:1023C0000B2EBA2FA02D0B01B90190010C01CA01EF
:1023D000A0011124FF27591B99F0593F50F4503E9A
:1023E00068F11A16F040A22F232F342F4427585F8C
:1023F000F3CF469537952795A795F0405395C9F7A4
:102400007EF41F16BA0B620B730B840BBAF091505B
:10241000A1F0FF0FBB1F661F771F881FC2F70EC0FA
:10242000BA0F621F731F841F48F4879577956795CD
:10243000B795F7959E3F08F0B0CF9395880F08F0B9
:102440009927EE0F9795879508950E9439120C945D
:1024500045130E943E1358F00E94371340F029F4B0
:102460005F3F29F00C942E1351110C9479130C94A6
:1024700034130E94561368F39923B1F3552391F353
:10248000951B550BBB27AA2762177307840738F0E3
:102490009F5F5F4F220F331F441FAA1FA9F335D040
:1024A0000E2E3AF0E0E832D091505040E695001CF4
:1024B000CAF72BD0FE2F29D0660F771F881FBB1FAE
:1024C000261737074807AB07B0E809F0BB0B802D8C
:1024D000BF01FF2793585F4F3AF09E3F510578F0B8
:1024E0000C942E130C9479135F3FE4F3983ED4F3CD
:1024F000869577956795B795F7959F5FC9F7880F8C
:10250000911D9695879597F90895E1E0660F771FDD
:10251000881FBB1F621773078407BA0720F0621B6E
:10252000730B840BBA0BEE1F88F7E09508950E9499
:102530009E126894B1110C94791308950E945E1351
:1025400088F09F5798F0B92F9927B751B0F0E1F074
:10255000660F771F881F991F1AF0BA95C9F714C024
:10256000B13091F00E947813B1E008950C94781383
:10257000672F782F8827B85F39F0B93FCCF386955D
:1025800077956795B395D9F73EF4909580957095BA
:1025900061957F4F8F4F9F4F0895E89409C097FB37
:1025A0003EF490958095709561957F4F8F4F9F4F2A
:1025B0009923A9F0F92F96E9BB279395F69587956E
:1025C00077956795B795F111F8CFFAF4BB0F11F431
:1025D00060FF1BC06F5F7F4F8F4F9F4F16C08823D8
:1025E00011F096E911C0772321F09EE8872F762F0E
:1025F00005C0662371F096E8862F70E060E02AF04F
:102600009A95660F771F881FDAF7880F969587953A
:1026100097F90895990F0008550FAA0BE0E8FEEF0F
:1026200016161706E807F907C0F012161306E40796
:10263000F50798F0621B730B840B950B39F40A268F
:1026400061F0232B242B252B21F408950A2609F46D
:10265000A140A6958FEF811D811D089597F99F6771
:1026600080E870E060E008959FEF80EC089500241A
:102670000A941616170618060906089500240A94E7
:1026800012161306140605060895092E0394000C6D
:1026900011F4882352F0BB0F40F4BF2B11F460FFFC
:1026A00004C06F5F7F4F8F4F9F4F089557FD905825
:1026B000440F551F59F05F3F71F04795880F97FB06
:1026C000991F61F09F3F79F08795089512161306C0
:1026D0001406551FF2CF4695F1DF08C016161706EF
:1026E0001806991FF1CF8695710561050894089524
:1026F000E894BB2766277727CB0197F908950E94B6
:102700000A1308F48FEF08950E9497130C94451351
:102710000E94371338F00E943E1320F0952311F0E9
:102720000C942E130C94341311240C9479130E94DE
:10273000561370F3959FC1F3950F50E0551F629F9C
:10274000F001729FBB27F00DB11D639FAA27F00D0A
:10275000B11DAA1F649F6627B00DA11D661F829F31
:102760002227B00DA11D621F739FB00DA11D621F16
:10277000839FA00D611D221F749F3327A00D611D33
:10278000231F849F600D211D822F762F6A2F112415
:102790009F5750409AF0F1F088234AF0EE0FFF1F48
:1027A000BB1F661F771F881F91505040A9F79E3F9F
:1027B000510580F00C942E130C9479135F3FE4F3D1
:1027C000983ED4F3869577956795B795F795E795F5
:1027D0009F5FC1F7FE2B880F911D9695879597F9FE
:1027E0000895991B79E004C0991F961708F0961B6D
:1027F000881F7A95C9F780950895AA1BBB1B51E1E4
:1028000007C0AA1FBB1FA617B70710F0A61BB70B60
:10281000881F991F5A95A9F780959095BC01CD0105
:10282000089597FB072E16F4009407D077FD09D082
:102830000E94FD1307FC05D03EF4909581959F4FB3
:102840000895709561957F4F0895A1E21A2EAA1BF5
:10285000BB1BFD010DC0AA1FBB1FEE1FFF1FA21750
:10286000B307E407F50720F0A21BB30BE40BF50B4D
:10287000661F771F881F991F1A9469F760957095D6
:10288000809590959B01AC01BD01CF010895052E67
:1028900097FB1EF400940E945E1457FD07D00E941F
:1028A000251407FC03D04EF40C945E14509540950B
:1028B000309521953F4F4F4F5F4F089590958095EC
:1028C000709561957F4F8F4F9F4F0895EE0FFF1FBB
:1028D0000590F491E02D09940E947714A59F900D26
:1028E000B49F900DA49F800D911D11240895A29F67
:1028F000B001B39FC001A39F700D811D1124911DD4
:10290000B29F700D811D1124911D0895F894FFCF81
:10291000FF000000005E041001920444010000006A
:1029200000530430018101D00200000000E005B036
:0A2930000584058C05A005AF050025
:00000001FF
